S00C00006C6F636B2E737265636F
S11300000C9459000C9481000C9481000C94810090
S11300100C9481000C9481000C9481000C94810058
S11300200C9481000C9481000C9481000C94810048
S11300300C9481000C9481000C9481000C94810038
S11300400C9409030C9481000C9481000C9481009D
S11300500C9481000C9481000C9481000C94810018
S11300600C94CE060C9481000000000800020100EC
S1130070000304070000000000000000010204085F
S113008010204080010204081020010204081020FE
S1130090040404040404040402020202020203032A
S11300A00303030300000000250028002B000C01BB
S11300B0130611241FBECFEFD8E0DEBFCDBF11E081
S11300C0A0E0B1E0ECEEF0E102C005900D92AE3B91
S11300D0B107D9F722E0AEEBB1E001C01D92A73918
S11300E0B207E1F710E0C9E5D0E004C02197FE01B2
S11300F00E945308C735D107C9F70E94B5020C9472
S113010074080C9400008EEB91E00E94630420E0DC
S113011042E060E18EEB91E00E94AD048EEB91E051
S11301200E9411058EEB91E00E941D0440E060E006
S11301308EEB91E00C9471040F931F93CF93DF9394
S11301408C01EB018EEB91E00E94630420E042E01D
S113015060E18EEB91E00E94AD048EEB91E00E9491
S113016011058EEB91E00E941D0440E060E08EEBEF
S113017091E00E947104B8018EEB91E00E940703A4
S113018041E060E08EEB91E00E947104BE018EEBD1
S113019091E0DF91CF911F910F910C9407030E947E
S11301A0830068E171E08EEB91E00C9407030E94F8
S11301B0830066E271E08EEB91E00C9407036EE23B
S11301C071E08AE391E00E949C002FEF87EA91E6B8
S11301D0215080409040E1F700C000000C94CF0013
S11301E0CF93DF93EC0141E060E08EEB91E00E945D
S11301F07104BE018EEB91E0DF91CF910C94070363
S11302006BE571E084E491E00C949C006FE471E090
S113021080E691E00C949C0022E040E167E28EEBE2
S113022091E00C94FA039C0182E084B91092850059
S11302301092840086E893E190938700809386006F
S113024082E880938000E1E8F0E090819B619083F4
S113025030938900209388000895FC019F01281B96
S1130260390B2617370714F41192F8CF08950F931A
S11302701F93CF93DF938C01FC016115710571F01D
S1130280E60FF71F1082EB01219789E691E00E94A7
S1130290F000C8010E94F000CE0110C0108289E66F
S11302A091E00E94F000C8010E94F0008EEB90E003
S11302B00E9413010E94CF0080E090E0DF91CF9173
S11302C01F910F9108950E942D018DEB91E00E94E2
S11302D013012FEF83ED90E3215080409040E1F72C
S11302E000C000000E94D70080E090E00895CF9302
S11302F0DF93EC01CA010E942D0181E084B985B924
S11303002FEF80E792E0215080409040E1F700C059
S1130310000015B814B80E94DF008EEB90E00E9434
S11303201301CE010196DF91CF9108950F931F938E
S1130330CF93DF93EC018A016EE871E00E946408B8
S1130340892B49F414B815B80E94CF00B801CE0126
S11303500E942D0109C081E084B985B9B801CE019C
S11303600E942D010E94060180E090E0DF91CF9170
S11303701F910F9108950F931F93CF93DF93EC0177
S11303808B01BA010E945908CE010E94F000C801F5
S11303900196DF91CF911F910F910895CF93DF9331
S11303A0CDB7DEB7A0970FB6F894DEBF0FBECDBFB2
S11303B08FEF8AB91BB817B888B91A8A198AFE014F
S11303C073968EE0DF011D928A95E9F785E0E0E0FF
S11303D0F1E0DE01119601900D928A95E1F7FE019C
S11303E036968BE0DF011D928A95E9F7E12CF12C1A
S11303F0C12CD12C00E010E09FE7B92E2FEBA22EE8
S11304003FED932E4FEE842EBBB8309903C04AE7DC
S113041051E004C0319909C04CE751E0B801CE0164
S113042041960E94BB018C014FC032994DC0B1E08E
S1130430EB16F10409F441C0BE016F5F7F4FCE019A
S113044041960E946408892B41F4A701B801CE01AA
S113045041960E9463017C0137C06EE871E0CE01D1
S113046041960E946408892B59F4B801CE01419643
S11304700E942D010E940001CC24C394D12C24C0DD
S1130480CA94CD2879F40E94CF00BE016F5E7F4FDD
S1130490CE0101960E946D08B801CE0141960E94DA
S11304A02D0108C0AE014F5E5F4FB801C7010E9425
S11304B077017C01C12CD12C07C0A80161E070E058
S11304C0CE0141960E949601ABB8309906C0B8019E
S11304D0CE0141960E9437010EC0319903C04EE708
S11304E051E004C0329908C040E851E0B801CE019F
S11304F041960E94BB018C019BB8309903C042E82D
S113050051E009C0319903C044E851E004C0329974
S113051008C046E851E0B801CE0141960E94BB01F3
S11305208C018BB8309903C048E851E009C0319977
S113053003C04AE851E004C0329908C04CE851E0D5
S1130540B801CE0141960E94BB018C018FEF95EA60
S1130550AEE081509040A040E1F700C0000054CFCD
S11305600C94CF000E94CE0108950E94BF030E9404
S1130570B4020E94B002C0E0D0E00E94B202209710
S1130580E1F30E940000F9CF80E090E0089508951F
S1130590CF92DF92EF92FF920F931F93CF93DF934B
S11305A06C017A018B01C0E0D0E0CE15DF0581F04B
S11305B0D8016D918D01D601ED91FC910190F081EE
S11305C0E02DC6010995892B11F02196EECF7E010D
S11305D0C701DF91CF911F910F91FF90EF90DF90B2
S11305E0CF9008956115710579F0FB010190002009
S11305F0E9F73197AF01461B570BDC01ED91FC91F4
S11306000280F381E02D099480E090E008950C9439
S1130610F2021F920F920FB60F9211242F933F9361
S11306208F939F93AF93BF938091CB019091CC0113
S1130630A091CD01B091CE013091CA0123E0230FE6
S11306402D3720F40196A11DB11D05C026E8230F06
S11306500296A11DB11D2093CA018093CB019093F2
S1130660CC01A093CD01B093CE018091CF019091A4
S1130670D001A091D101B091D2010196A11DB11D6B
S11306808093CF019093D001A093D101B093D20174
S1130690BF91AF919F918F913F912F910F900FBE7A
S11306A00F901F9018953FB7F8948091CF019091C7
S11306B0D001A091D101B091D20126B5A89B05C06B
S11306C02F3F19F00196A11DB11D3FBFBA2FA92FCD
S11306D0982F8827820F911DA11DB11DBC01CD014A
S11306E042E0660F771F881F991F4A95D1F7089536
S11306F08F929F92AF92BF92CF92DF92EF92FF922E
S11307006B017C010E9453034B015C01C114D104B1
S1130710E104F10401F10E9417060E945303DC0175
S1130720CB0188199909AA09BB09883E9340A10500
S1130730B10560F321E0C21AD108E108F10888EE9E
S1130740880E83E0981EA11CB11CC114D104E104DD
S1130750F10419F7DBCFFF90EF90DF90CF90BF90BB
S1130760AF909F908F9008958230910538F0880F54
S1130770991F880F991F05970197F1F708957894A9
S113078084B5826084BD84B5816084BD85B5826092
S113079085BD85B5816085BDEEE6F0E08081816030
S11307A08083E1E8F0E01082808182608083808130
S11307B081608083E0E8F0E0808181608083E1EB08
S11307C0F0E0808184608083E0EBF0E080818160F0
S11307D08083EAE7F0E080818460808380818260A6
S11307E0808380818160808380818068808310928F
S11307F0C1000895FC011382128283EA91E091837F
S11308008083648341872287138608951F93CF933F
S1130810DF93EC01162F6C8183ED91E00E94F305C8
S11308206B85612B83ED91E00E94A20583ED91E03D
S1130830DF91CF911F910C94100628E0FC012387CF
S113084060E00C9406040F931F93CF938C01C62F82
S113085064600E94060481E090E00E94B4036C2F5F
S11308606B7FC8010E94060482E390E0CF911F9140
S11308700F910C94B4031F93CF93DF93EC01162FC5
S11308800E940604612FCE01DF91CF911F910C9439
S113089023040F931F93CF93DF938C01C62FD42F80
S11308A0607F642B0E943B0480E1C89FB001112447
S11308B06D2BC801DF91CF911F910F910C943B04D4
S11308C040E00C94490461E00E94600480ED97E0EC
S11308D00C94B40362E00E94600480ED97E00C94F1
S11308E0B403CF93DF93CDB7DEB728970FB6F89450
S11308F0DEBF0FBECDBF9C0188E0E0E1F1E0DE0188
S1130900119601900D928A95E1F7F901808584177B
S113091010F44FEF480FFE013196E40FF11DE40F80
S1130920F11D9081690F6068C90128960FB6F8948B
S1130930DEBF0FBECDBFDF91CF910C946004FC01EC
S11309406681262F246026836C600C94600441E049
S11309500E94490481E090E00895CF93DF93EC0175
S1130960423018F08D8188608D834887222329F0D6
S1130970413019F48D8184608D8362E370E080E0FE
S113098090E00E9478036B85CE010E94060468EE15
S113099073E080E090E00E94780360E3CE010E945F
S11309A03B0484E991E10E94B40360E3CE010E9418
S11309B03B0484E991E10E94B40360E3CE010E9408
S11309C03B0486E990E00E94B40360E2CE010E94F9
S11309D03B046D816062CE010E94600484E08E83DA
S11309E0CE010E949F04CE010E94630482E08F83A3
S11309F066E0CE010E946004CE01DF91CF910C9499
S1130A006A04CF93DF93EC0183ED91E00E94E1054A
S1130A101D8220E04A856985CE01DF91CF910C9437
S1130A20AD040C9401058091070290E02091080226
S1130A30821B9109089590910802809107029817EA
S1130A4050F4E92FF0E0E75FFD4F208130E09F5F35
S1130A509093080202C02FEF3FEFC9010895E0917F
S1130A60080280910702E81730F4F0E0E75FFD4FD9
S1130A70808190E008958FEF9FEF08950895CF93BC
S1130A80DF93EC01E091DF01F091E0013097F1F0A8
S1130A9090910802809107029817C0F090E0292FE6
S1130AA030E02617370754F4DE01A20FB31F4C9130
S1130AB0D901A75FBD4F4C939F5FF1CF10920802FD
S1130AC060930702CB01DF91CF910994DF91CF911D
S1130AD00895E091E101F091E201309729F010923C
S1130AE0E5011092E40109940895CF92DF92EF9208
S1130AF0FF920F931F93CF93DF937C01CB018A0165
S1130B002091E301222389F0EB016B01C40ED51E71
S1130B10CC15DD0569F06991D701ED91FC91019047
S1130B20F081E02DC7010995F3CF642F0E948C0654
S1130B30C801DF91CF911F910F91FF90EF90DF904B
S1130B40CF900895CF93DF931F92CDB7DEB769831B
S1130B502091E3012223D1F02091E401203240F0DE
S1130B6021E030E0FC013383228380E090E015C073
S1130B708091E501E82FF0E0EA51FE4F99819083DE
S1130B808F5F8093E5018093E40105C061E0CE01AD
S1130B9001960E948C0681E090E00F90DF91CF9146
S1130BA00895FC011382128288EE93E0A0E0B0E085
S1130BB084839583A683B7838FEA91E091838083AE
S1130BC0089510920802109207021092E501109203
S1130BD0E4010E94180689E695E00E94B9068FE3B5
S1130BE095E00C94B40681E08093E30160930602DF
S1130BF01092E5011092E40108950F93062F21E06D
S1130C004091E40166EE71E0809106020E9436068E
S1130C101092E5011092E4011092E3010F910895FE
S1130C2061E00C94FD0583ED91E00C94D1050895E9
S1130C301092960281E0809394021092930261E0F4
S1130C4082E10E94240861E083E10E942408E9EB28
S1130C50F0E080818E7F808380818D7F808388E433
S1130C608093B80085E48093BC0008950F934132CB
S1130C7008F04AC0909196029111FCCF32E0309373
S1130C809602009394023FEF3093290210926E0271
S1130C9040936D02562FAFE6B2E0FB013E2F351BA9
S1130CA0341718F431913D93F9CF10929502309195
S1130CB09502880F832B8093950280919302813053
S1130CC061F410929302809195028093BB0080910D
S1130CD0BC0083FDF8CF85EC01C085EE8093BC0099
S1130CE0222321F0809196028230D1F3809129024F
S1130CF08F3F79F080912902803241F0809129025E
S1130D00803331F094E005C091E003C092E001C06B
S1130D1093E0892F0F91089540914B02262F30E0E4
S1130D20240F311D21323105DCF420919602243048
S1130D30C9F4FC0180E090E0861758F430914B022E
S1130D402191DC01A35BBD4FA30FB11D2C93019630
S1130D50F3CF80914B02680F60934B0280E00895BB
S1130D6081E0089582E008959093900280938F0229
S1130D7008959093920280939102089585ED809353
S1130D80BC008091BC0084FDFCCF109296020895B3
S1130D9085EC8093BC001092960208951F920F92E6
S1130DA00FB60F9211242F933F934F935F936F933A
S1130DB07F938F939F93AF93BF93EF93FF93809110
S1130DC0B900887F803609F49EC078F5883209F42A
S1130DD05DC090F4803109F456C038F4882309F4D6
S1130DE0F5C0883009F44FC0F5C0883109F44EC00D
S1130DF0803209F45FC0EEC0803409F46AC058F44C
S1130E00803309F457C0883309F0E4C08093290281
S1130E100E94C806DFC0803509F44FC0883509F444
S1130E205DC0883409F0D6C0D3C0883909F4C4C081
S1130E30A8F4883709F467C038F4883609F463C025
S1130E40803709F460C0C6C0883809F4B5C0803959
S1130E5009F45FC0803809F0BDC05BC0803B09F471
S1130E6083C038F4803A09F466C0883A09F47CC037
S1130E70B1C0803C09F4A4C0883C09F4A1C0883BFB
S1130E8009F487C0A7C08091950210C090916E02AA
S1130E9080916D02981770F5E0916E0281E08E0FDB
S1130EA080936E02F0E0E159FD4F80818093BB0096
S1130EB085EC83C0809329028BC0E0916E0281E0AF
S1130EC08E0F80936E028091BB00F0E0E159FD4FDC
S1130ED0808390916E0280916D026BC0E0916E02EE
S1130EE081E08E0F80936E028091BB00F0E0E159A7
S1130EF0FD4F80838091940281116AC081E08093C8
S1130F00930284EA5EC083E08093960210922A02E0
S1130F10CFCF80912A02803208F04EC0E0912A029D
S1130F2081E08E0F80932A028091BB00F0E0E55DA2
S1130F30FD4F8083BDCF0E94C80680912A02803273
S1130F4030F4E0912A02F0E0E55DFD4F10826091FB
S1130F502A0270E0E0918F02F09190028BE292E01D
S1130F60099510922A0236C084E08093960210926A
S1130F704C0210924B02E0919102F0919202099579
S1130F8080914B02811105C081E080934B02109245
S1130F904D02E0914C0281E08E0F80934C02F0E010
S1130FA0E35BFD4F80818093BB0090914C02809164
S1130FB04B02981708F47CCF85E88093BC000AC0E4
S1130FC085EC8093BC001092960204C01092290212
S1130FD00E94BE06FF91EF91BF91AF919F918F91B7
S1130FE07F916F915F914F913F912F910F900FBE21
S1130FF00F901F901895833081F028F4813099F078
S11310008230A1F008958730A9F08830B9F0843097
S1131010D1F4809180008F7D03C0809180008F7710
S113102080938000089584B58F7702C084B58F7D46
S113103084BD08958091B0008F7703C08091B00083
S11310408F7D8093B00008951F93CF93DF93282F53
S113105030E0F901E859FF4F8491F901E458FF4F5A
S1131060D491F901E057FF4FC491CC23C1F0162F5E
S113107081110E94FB07EC2FF0E0EE0FFF1FEC55EF
S1131080FF4FA591B4919FB7F894111104C08C91AE
S1131090D095D82302C0EC91DE2BDC939FBFDF9167
S11310A0CF911F910895EE0FFF1F0590F491E02D4D
S11310B00994FB01DC010D900020E9F711970190E0
S11310C00D920020E1F70895FB01DC018D91019060
S11310D080190110D9F3990B0895FB01DC010190EB
S10F10E00D920020E1F70895F894FFCF72
S11310EC393137340000000000000000000000001B
S11310FC00004000140054005770726F7761647ADA
S113110C2050494E3A004F545741525445005370A5
S113111C722E20506F6E6F772E005A6C65206861AA
S113112C736C6F004E4F5745204841534C4F002A67
S113113C2A2A2A2A2A2A2A2A2A2A2A2A2A2A2A0029
S113114C424C4F4B414441210020202020202020A0
S113115C20202020202020202000310030003800C6
S113116C3900370035003600340032003300313298
S113117C3334353637383930313233343536000080
S113118C000000A704C802C402C70200000000A2A9
S111119C057505C4023E0513051B052F05004D
S9030000FC
